{
  "contractName": "pokemon",
  "abi": [
    {
      "constant": true,
      "inputs": [],
      "name": "pokeCount",
      "outputs": [
        {
          "name": "",
          "type": "uint256"
        }
      ],
      "payable": false,
      "stateMutability": "view",
      "type": "function"
    },
    {
      "inputs": [],
      "payable": false,
      "stateMutability": "nonpayable",
      "type": "constructor"
    },
    {
      "anonymous": false,
      "inputs": [
        {
          "indexed": false,
          "name": "id",
          "type": "uint256"
        },
        {
          "indexed": false,
          "name": "cost",
          "type": "uint256"
        },
        {
          "indexed": false,
          "name": "name",
          "type": "string"
        }
      ],
      "name": "pokeCreate",
      "type": "event"
    },
    {
      "constant": false,
      "inputs": [
        {
          "name": "_id",
          "type": "uint256"
        },
        {
          "name": "_cost",
          "type": "uint256"
        },
        {
          "name": "_name",
          "type": "string"
        }
      ],
      "name": "buyPokemon",
      "outputs": [],
      "payable": true,
      "stateMutability": "payable",
      "type": "function"
    },
    {
      "constant": true,
      "inputs": [],
      "name": "getPokemon",
      "outputs": [
        {
          "name": "",
          "type": "uint256"
        },
        {
          "name": "",
          "type": "uint256"
        },
        {
          "name": "",
          "type": "string"
        }
      ],
      "payable": false,
      "stateMutability": "view",
      "type": "function"
    }
  ],
  "bytecode": "0x60806040526000805534801561001457600080fd5b5061005d601960706040518060400160405280600781526020017f50696b616368750000000000000000000000000000000000000000000000000081525061006260201b60201c565b61019a565b604051806060016040528084815260200183815260200182815250600260003373ffffffffffffffffffffffffffffffffffffffff1673ffffffffffffffffffffffffffffffffffffffff168152602001908152602001600020600082015181600001556020820151816001015560408201518160020190805190602001906100ec9291906100f5565b50905050505050565b828054600181600116156101000203166002900490600052602060002090601f016020900481019282601f1061013657805160ff1916838001178555610164565b82800160010185558215610164579182015b82811115610163578251825591602001919060010190610148565b5b5090506101719190610175565b5090565b61019791905b8082111561019357600081600090555060010161017b565b5090565b90565b6104af806101a96000396000f3fe6080604052600436106100345760003560e01c80631eff6ba1146100395780634221b2c21461010857806387e24c7214610133575b600080fd5b6101066004803603606081101561004f57600080fd5b8101908080359060200190929190803590602001909291908035906020019064010000000081111561008057600080fd5b82018360208201111561009257600080fd5b803590602001918460018302840111640100000000831117156100b457600080fd5b91908080601f016020809104026020016040519081016040528093929190818152602001838380828437600081840152601f19601f8201169050808301925050505050505091929192905050506101d1565b005b34801561011457600080fd5b5061011d610264565b6040518082815260200191505060405180910390f35b34801561013f57600080fd5b5061014861026a565b6040518084815260200183815260200180602001828103825283818151815260200191508051906020019080838360005b83811015610194578082015181840152602081019050610179565b50505050905090810190601f1680156101c15780820380516001836020036101000a031916815260200191505b5094505050505060405180910390f35b604051806060016040528084815260200183815260200182815250600260003373ffffffffffffffffffffffffffffffffffffffff1673ffffffffffffffffffffffffffffffffffffffff1681526020019081526020016000206000820151816000015560208201518160010155604082015181600201908051906020019061025b9291906103de565b50905050505050565b60005481565b6000806060600260003373ffffffffffffffffffffffffffffffffffffffff1673ffffffffffffffffffffffffffffffffffffffff16815260200190815260200160002060000154600260003373ffffffffffffffffffffffffffffffffffffffff1673ffffffffffffffffffffffffffffffffffffffff16815260200190815260200160002060010154600260003373ffffffffffffffffffffffffffffffffffffffff1673ffffffffffffffffffffffffffffffffffffffff168152602001908152602001600020600201808054600181600116156101000203166002900480601f0160208091040260200160405190810160405280929190818152602001828054600181600116156101000203166002900480156103cc5780601f106103a1576101008083540402835291602001916103cc565b820191906000526020600020905b8154815290600101906020018083116103af57829003601f168201915b50505050509050925092509250909192565b828054600181600116156101000203166002900490600052602060002090601f016020900481019282601f1061041f57805160ff191683800117855561044d565b8280016001018555821561044d579182015b8281111561044c578251825591602001919060010190610431565b5b50905061045a919061045e565b5090565b61048091905b8082111561047c576000816000905550600101610464565b5090565b9056fea165627a7a72305820cd13334728a0ff4d1e058eba5b63d82e6b7bbc1aaa10d04b47b12b7dfc1f419c0029",
  "source": "pragma solidity ^0.5.0;\n\ncontract pokemon {\n    uint public pokeCount = 0;\n    struct Poke {\n        uint id;\n        uint cost;\n        string name;\n    }\n    uint[] arr;\n\n    mapping(address => Poke) myPokemon;\n\n    event pokeCreate(\n        uint id,\n        uint cost,\n        string name\n    );\n    \n    constructor() public {\n        buyPokemon(25,112,\"Pikachu\");\n    }\n\n    // buy pokemon\n    // payble function\n    function buyPokemon(uint256 _id, uint256 _cost, string memory _name) payable public{\n        myPokemon[msg.sender] = Poke(_id,_cost,_name);\n    }\n\n    // get pokemon\n    function getPokemon() view external returns(uint256, uint256, string memory) {\n        return (myPokemon[msg.sender].id, myPokemon[msg.sender].cost, myPokemon[msg.sender].name);\n        \n    }\n\n    // sell pokemon\n\n\n}",
  "sourcePath": "/Users/ryu/awesome_shop/contracts/pokemon.sol",
  "compiler": {
    "name": "solc",
    "version": "0.5.8+commit.23d335f2.Emscripten.clang"
  },
  "schemaVersion": "3.0.16",
  "updatedAt": "2019-10-15T13:11:27.191Z",
  "devdoc": {
    "methods": {}
  },
  "userdoc": {
    "methods": {}
  }
}