{
  "contractName": "pokemon",
  "abi": [
    {
      "constant": false,
      "inputs": [],
      "name": "buyPokemon",
      "outputs": [],
      "payable": true,
      "stateMutability": "payable",
      "type": "function"
    }
  ],
  "bytecode": "0x6080604052348015600f57600080fd5b50605780601d6000396000f3fe608060405260043610601c5760003560e01c8063c78bc15f146021575b600080fd5b60276029565b005b56fea165627a7a72305820450585a50ace5835a0bd1845732a886bbb22b450961e8b0b8f1c0139beb7fc440029",
  "deployedBytecode": "0x608060405260043610601c5760003560e01c8063c78bc15f146021575b600080fd5b60276029565b005b56fea165627a7a72305820450585a50ace5835a0bd1845732a886bbb22b450961e8b0b8f1c0139beb7fc440029",
  "source": "pragma solidity ^0.5.0;\n\ncontract pokemon {\n\n    struct Poke {\n        uint id;\n        uint cost;\n        string name;\n        // ipfs 해쉬값\n        string photo;\n    }\n\n    mapping(uint => Poke) myPokemon;\n\n    // buy pokemon\n    function buyPokemon() payable external{\n\n    }\n\n    // get pokemon\n\n    // sell pokemon\n\n\n}",
  "sourcePath": "/Users/ryu/awesome_shop/contracts/pokemon.sol",
  "compiler": {
    "name": "solc",
    "version": "0.5.8+commit.23d335f2.Emscripten.clang"
  },
  "schemaVersion": "3.0.16",
  "updatedAt": "2019-10-12T16:45:47.257Z",
  "devdoc": {
    "methods": {}
  },
  "userdoc": {
    "methods": {}
  }
}