{
  "contractName": "pokemon",
  "abi": [
    {
      "constant": true,
      "inputs": [],
      "name": "pokeCount",
      "outputs": [
        {
          "name": "",
          "type": "uint256"
        }
      ],
      "payable": false,
      "stateMutability": "view",
      "type": "function"
    },
    {
      "inputs": [],
      "payable": false,
      "stateMutability": "nonpayable",
      "type": "constructor"
    },
    {
      "anonymous": false,
      "inputs": [
        {
          "indexed": false,
          "name": "id",
          "type": "uint256"
        },
        {
          "indexed": false,
          "name": "cost",
          "type": "uint256"
        },
        {
          "indexed": false,
          "name": "name",
          "type": "string"
        }
      ],
      "name": "pokeCreate",
      "type": "event"
    },
    {
      "constant": false,
      "inputs": [
        {
          "name": "_id",
          "type": "uint256"
        },
        {
          "name": "_cost",
          "type": "uint256"
        },
        {
          "name": "_name",
          "type": "string"
        }
      ],
      "name": "buyPokemon",
      "outputs": [],
      "payable": false,
      "stateMutability": "nonpayable",
      "type": "function"
    },
    {
      "constant": false,
      "inputs": [
        {
          "name": "_cost",
          "type": "uint256"
        }
      ],
      "name": "buyPokemonCost",
      "outputs": [],
      "payable": true,
      "stateMutability": "payable",
      "type": "function"
    },
    {
      "constant": true,
      "inputs": [],
      "name": "getPokemon",
      "outputs": [
        {
          "name": "",
          "type": "uint256"
        },
        {
          "name": "",
          "type": "uint256"
        },
        {
          "name": "",
          "type": "string"
        }
      ],
      "payable": false,
      "stateMutability": "view",
      "type": "function"
    }
  ],
  "bytecode": "0x60806040526000805534801561001457600080fd5b5061005d601960706040518060400160405280600781526020017f50696b616368750000000000000000000000000000000000000000000000000081525061006260201b60201c565b6101ac565b604051806060016040528084815260200183815260200182815250600160003373ffffffffffffffffffffffffffffffffffffffff1673ffffffffffffffffffffffffffffffffffffffff168152602001908152602001600020600082015181600001556020820151816001015560408201518160020190805190602001906100ec929190610107565b509050506100ff8261010460201b60201c565b505050565b50565b828054600181600116156101000203166002900490600052602060002090601f016020900481019282601f1061014857805160ff1916838001178555610176565b82800160010185558215610176579182015b8281111561017557825182559160200191906001019061015a565b5b5090506101839190610187565b5090565b6101a991905b808211156101a557600081600090555060010161018d565b5090565b90565b610501806101bb6000396000f3fe60806040526004361061003f5760003560e01c80631eff6ba1146100445780634221b2c21461012057806387e24c721461014b578063c57f2e90146101e9575b600080fd5b34801561005057600080fd5b5061011e6004803603606081101561006757600080fd5b8101908080359060200190929190803590602001909291908035906020019064010000000081111561009857600080fd5b8201836020820111156100aa57600080fd5b803590602001918460018302840111640100000000831117156100cc57600080fd5b91908080601f016020809104026020016040519081016040528093929190818152602001838380828437600081840152601f19601f820116905080830192505050505050509192919290505050610217565b005b34801561012c57600080fd5b506101356102b3565b6040518082815260200191505060405180910390f35b34801561015757600080fd5b506101606102b9565b6040518084815260200183815260200180602001828103825283818151815260200191508051906020019080838360005b838110156101ac578082015181840152602081019050610191565b50505050905090810190601f1680156101d95780820380516001836020036101000a031916815260200191505b5094505050505060405180910390f35b610215600480360360208110156101ff57600080fd5b810190808035906020019092919050505061042d565b005b604051806060016040528084815260200183815260200182815250600160003373ffffffffffffffffffffffffffffffffffffffff1673ffffffffffffffffffffffffffffffffffffffff168152602001908152602001600020600082015181600001556020820151816001015560408201518160020190805190602001906102a1929190610430565b509050506102ae8261042d565b505050565b60005481565b6000806060600160003373ffffffffffffffffffffffffffffffffffffffff1673ffffffffffffffffffffffffffffffffffffffff16815260200190815260200160002060000154600160003373ffffffffffffffffffffffffffffffffffffffff1673ffffffffffffffffffffffffffffffffffffffff16815260200190815260200160002060010154600160003373ffffffffffffffffffffffffffffffffffffffff1673ffffffffffffffffffffffffffffffffffffffff168152602001908152602001600020600201808054600181600116156101000203166002900480601f01602080910402602001604051908101604052809291908181526020018280546001816001161561010002031660029004801561041b5780601f106103f05761010080835404028352916020019161041b565b820191906000526020600020905b8154815290600101906020018083116103fe57829003601f168201915b50505050509050925092509250909192565b50565b828054600181600116156101000203166002900490600052602060002090601f016020900481019282601f1061047157805160ff191683800117855561049f565b8280016001018555821561049f579182015b8281111561049e578251825591602001919060010190610483565b5b5090506104ac91906104b0565b5090565b6104d291905b808211156104ce5760008160009055506001016104b6565b5090565b9056fea165627a7a72305820bc037d469758773e3b4e34f98ad3980fd1e38950e64cf4c7a58c9886cf476bec0029",
  "source": "pragma solidity ^0.5.0;\n\ncontract pokemon {\n    uint public pokeCount = 0;\n    struct Poke {\n        uint id;\n        uint cost;\n        string name;\n    }\n\n    mapping(address => Poke) myPokemon;\n\n    event pokeCreate(\n        uint id,\n        uint cost,\n        string name\n    );\n    \n    constructor() public {\n        buyPokemon(25,112,\"Pikachu\");\n    }\n\n    // buy pokemon\n    // payble function\n    function buyPokemon(uint256 _id, uint256 _cost, string memory _name) public{\n        myPokemon[msg.sender] = Poke(_id,_cost,_name);\n        buyPokemonCost(_cost);\n    }\n\n    function buyPokemonCost(uint _cost) payable public{\n        \n    }\n\n    // get pokemon\n    function getPokemon() view external returns(uint256, uint256, string memory) {\n        return (myPokemon[msg.sender].id, myPokemon[msg.sender].cost, myPokemon[msg.sender].name);\n        \n    }\n\n    // sell pokemon\n\n\n}",
  "sourcePath": "/Users/ryu/awesome_shop/contracts/pokemon.sol",
  "compiler": {
    "name": "solc",
    "version": "0.5.8+commit.23d335f2.Emscripten.clang"
  },
  "schemaVersion": "3.0.16",
  "updatedAt": "2019-10-16T05:55:15.664Z",
  "devdoc": {
    "methods": {}
  },
  "userdoc": {
    "methods": {}
  }
}