{
  "contractName": "pokemon",
  "abi": [
    {
      "constant": true,
      "inputs": [],
      "name": "pokeCount",
      "outputs": [
        {
          "name": "",
          "type": "uint256"
        }
      ],
      "payable": false,
      "stateMutability": "view",
      "type": "function"
    },
    {
      "inputs": [],
      "payable": false,
      "stateMutability": "nonpayable",
      "type": "constructor"
    },
    {
      "anonymous": false,
      "inputs": [
        {
          "indexed": false,
          "name": "id",
          "type": "uint256"
        },
        {
          "indexed": false,
          "name": "cost",
          "type": "uint256"
        },
        {
          "indexed": false,
          "name": "name",
          "type": "string"
        }
      ],
      "name": "pokeCreate",
      "type": "event"
    },
    {
      "constant": false,
      "inputs": [
        {
          "name": "_id",
          "type": "uint256"
        },
        {
          "name": "_cost",
          "type": "uint256"
        },
        {
          "name": "_name",
          "type": "string"
        }
      ],
      "name": "buyPokemon",
      "outputs": [],
      "payable": false,
      "stateMutability": "nonpayable",
      "type": "function"
    },
    {
      "constant": true,
      "inputs": [],
      "name": "getPokemon",
      "outputs": [
        {
          "name": "",
          "type": "uint256"
        },
        {
          "name": "",
          "type": "uint256"
        },
        {
          "name": "",
          "type": "string"
        }
      ],
      "payable": false,
      "stateMutability": "view",
      "type": "function"
    }
  ],
  "bytecode": "0x60806040526000805534801561001457600080fd5b5061005d601960706040518060400160405280600781526020017f50696b616368750000000000000000000000000000000000000000000000000081525061006260201b60201c565b610246565b604051806060016040528084815260200183815260200182815250600160003373ffffffffffffffffffffffffffffffffffffffff1673ffffffffffffffffffffffffffffffffffffffff168152602001908152602001600020600082015181600001556020820151816001015560408201518160020190805190602001906100ec9291906101a1565b509050507f6598948cbd9f52d2759098f4cd3aedeb80de8084700b25a518eff34b6684c3098383836040518084815260200183815260200180602001828103825283818151815260200191508051906020019080838360005b83811015610160578082015181840152602081019050610145565b50505050905090810190601f16801561018d5780820380516001836020036101000a031916815260200191505b5094505050505060405180910390a1505050565b828054600181600116156101000203166002900490600052602060002090601f016020900481019282601f106101e257805160ff1916838001178555610210565b82800160010185558215610210579182015b8281111561020f5782518255916020019190600101906101f4565b5b50905061021d9190610221565b5090565b61024391905b8082111561023f576000816000905550600101610227565b5090565b90565b61054e806102556000396000f3fe608060405234801561001057600080fd5b50600436106100415760003560e01c80631eff6ba1146100465780634221b2c21461011557806387e24c7214610133575b600080fd5b6101136004803603606081101561005c57600080fd5b8101908080359060200190929190803590602001909291908035906020019064010000000081111561008d57600080fd5b82018360208201111561009f57600080fd5b803590602001918460018302840111640100000000831117156100c157600080fd5b91908080601f016020809104026020016040519081016040528093929190818152602001838380828437600081840152601f19601f8201169050808301925050505050505091929192905050506101c4565b005b61011d610303565b6040518082815260200191505060405180910390f35b61013b610309565b6040518084815260200183815260200180602001828103825283818151815260200191508051906020019080838360005b8381101561018757808201518184015260208101905061016c565b50505050905090810190601f1680156101b45780820380516001836020036101000a031916815260200191505b5094505050505060405180910390f35b604051806060016040528084815260200183815260200182815250600160003373ffffffffffffffffffffffffffffffffffffffff1673ffffffffffffffffffffffffffffffffffffffff1681526020019081526020016000206000820151816000015560208201518160010155604082015181600201908051906020019061024e92919061047d565b509050507f6598948cbd9f52d2759098f4cd3aedeb80de8084700b25a518eff34b6684c3098383836040518084815260200183815260200180602001828103825283818151815260200191508051906020019080838360005b838110156102c25780820151818401526020810190506102a7565b50505050905090810190601f1680156102ef5780820380516001836020036101000a031916815260200191505b5094505050505060405180910390a1505050565b60005481565b6000806060600160003373ffffffffffffffffffffffffffffffffffffffff1673ffffffffffffffffffffffffffffffffffffffff16815260200190815260200160002060000154600160003373ffffffffffffffffffffffffffffffffffffffff1673ffffffffffffffffffffffffffffffffffffffff16815260200190815260200160002060010154600160003373ffffffffffffffffffffffffffffffffffffffff1673ffffffffffffffffffffffffffffffffffffffff168152602001908152602001600020600201808054600181600116156101000203166002900480601f01602080910402602001604051908101604052809291908181526020018280546001816001161561010002031660029004801561046b5780601f106104405761010080835404028352916020019161046b565b820191906000526020600020905b81548152906001019060200180831161044e57829003601f168201915b50505050509050925092509250909192565b828054600181600116156101000203166002900490600052602060002090601f016020900481019282601f106104be57805160ff19168380011785556104ec565b828001600101855582156104ec579182015b828111156104eb5782518255916020019190600101906104d0565b5b5090506104f991906104fd565b5090565b61051f91905b8082111561051b576000816000905550600101610503565b5090565b9056fea165627a7a723058201c259667fb5202e9a4f67174aa9e9b8de85ca78c9ab567cd00a2d80441d66dda0029",
  "source": "pragma solidity ^0.5.0;\n\ncontract pokemon {\n    uint public pokeCount = 0;\n    struct Poke {\n        uint id;\n        uint cost;\n        string name;\n    }\n\n    mapping(address => Poke) myPokemon;\n\n    event pokeCreate(\n        uint id,\n        uint cost,\n        string name\n    );\n    \n    constructor() public {\n        buyPokemon(25,112,\"Pikachu\");\n    }\n\n    // buy pokemon\n    // payble function\n    function buyPokemon(uint256 _id, uint256 _cost, string memory _name) public{\n        myPokemon[msg.sender] = Poke(_id,_cost,_name);\n        //buyPokemonCost(_cost);\n        emit pokeCreate(_id,_cost,_name);\n    }\n\n    // function buyPokemonCost(uint _cost) payable public{\n        \n    // }\n\n    // get pokemon\n    function getPokemon() view external returns(uint256, uint256, string memory) {\n        return (myPokemon[msg.sender].id, myPokemon[msg.sender].cost, myPokemon[msg.sender].name);\n        \n    }\n\n    // sell pokemon\n\n\n}",
  "sourcePath": "/Users/ryu/awesome_shop/contracts/pokemon.sol",
  "compiler": {
    "name": "solc",
    "version": "0.5.8+commit.23d335f2.Emscripten.clang"
  },
  "schemaVersion": "3.0.16",
  "updatedAt": "2019-10-16T06:51:10.683Z",
  "devdoc": {
    "methods": {}
  },
  "userdoc": {
    "methods": {}
  }
}