{
  "contractName": "shop",
  "abi": [
    {
      "constant": false,
      "inputs": [],
      "name": "buyApple",
      "outputs": [],
      "payable": true,
      "stateMutability": "payable",
      "type": "function"
    },
    {
      "constant": true,
      "inputs": [],
      "name": "getMyApples",
      "outputs": [
        {
          "name": "",
          "type": "uint16"
        }
      ],
      "payable": false,
      "stateMutability": "view",
      "type": "function"
    },
    {
      "constant": false,
      "inputs": [
        {
          "name": "_applePrice",
          "type": "uint256"
        }
      ],
      "name": "sellMyApple",
      "outputs": [],
      "payable": true,
      "stateMutability": "payable",
      "type": "function"
    }
  ],
  "bytecode": "0x608060405234801561001057600080fd5b50610293806100206000396000f3fe6080604052600436106100345760003560e01c80630bd5849314610039578063284131c71461006757806395ff3cc114610071575b600080fd5b6100656004803603602081101561004f57600080fd5b81019080803590602001909291905050506100a4565b005b61006f6101a0565b005b34801561007d57600080fd5b50610086610213565b604051808261ffff1661ffff16815260200191505060405180910390f35b6000816000803373ffffffffffffffffffffffffffffffffffffffff1673ffffffffffffffffffffffffffffffffffffffff16815260200190815260200160002060009054906101000a900461ffff1661ffff1602905060008060003373ffffffffffffffffffffffffffffffffffffffff1673ffffffffffffffffffffffffffffffffffffffff16815260200190815260200160002060006101000a81548161ffff021916908361ffff1602179055503373ffffffffffffffffffffffffffffffffffffffff166108fc829081150290604051600060405180830381858888f1935050505015801561019b573d6000803e3d6000fd5b505050565b6000803373ffffffffffffffffffffffffffffffffffffffff1673ffffffffffffffffffffffffffffffffffffffff168152602001908152602001600020600081819054906101000a900461ffff168092919060010191906101000a81548161ffff021916908361ffff16021790555050565b60008060003373ffffffffffffffffffffffffffffffffffffffff1673ffffffffffffffffffffffffffffffffffffffff16815260200190815260200160002060009054906101000a900461ffff1690509056fea165627a7a72305820687ad8d130f7df7434dc060e421aacfebf5ebbf072f93a12620fa5429c94fa750029",
  "source": "pragma solidity ^0.5.0;\n\ncontract shop {\n\n  mapping (address=>uint16) myApple;\n\n  function buyApple() payable  external {\n          myApple[msg.sender]++;\n  }\n\n  function getMyApples() view external returns(uint16) {\n          return myApple[msg.sender];\n  }\n\n  function sellMyApple(uint _applePrice) payable external {\n        uint refund = (myApple[msg.sender] * _applePrice);\n        myApple[msg.sender] = 0;\n        msg.sender.transfer(refund);\n  }\n\n}",
  "sourcePath": "/Users/ryu/eth_shopping/contracts/shop.sol",
  "compiler": {
    "name": "solc",
    "version": "0.5.8+commit.23d335f2.Emscripten.clang"
  },
  "schemaVersion": "3.0.16",
  "updatedAt": "2019-10-09T07:53:59.240Z",
  "devdoc": {
    "methods": {}
  },
  "userdoc": {
    "methods": {}
  }
}